:100000000C9439000C944B000C944B000C944B0056
:100010000C944B000C944B000C944B000C944B0034
:100020000C944B000C944B000C944B000C944B0024
:100030000C944B000C944B000C944B000C944B0014
:100040000C944B000C944B000C944B000C944B0004
:100050000C944B000C944B000C944B000C944B00F4
:100060000C944B000C944B00312E3030626F757243
:10007000736511241FBECFEFD8E0DEBFCDBF21E0F6
:10008000A0E0B1E001C01D92A730B207E1F70E94E5
:1000900077050C9421080C940000CF93DF938BE339
:1000A0000E94170487EF0E94170481E00E94170442
:1000B00085E00E94170485E00E94170480E00E94FA
:1000C000170480E00E941704CCE6D0E0FE01849182
:1000D0000E9417042196F0E0C237DF07B9F7DF91DD
:1000E000CF910895CF93DF9380910401843049F03C
:1000F0008CE68093050184E080930601DF91CF9127
:100100000895809100010E941704809104018823C2
:1001100079F0C0E0D0E0FE01E859FF4F84910E94E1
:10012000170421968091040190E0C817D9079CF329
:1001300080E980930501DF91CF9108954F925F92FE
:100140006F927F928F929F92AF92BF92CF92DF92E7
:10015000EF92FF920F931F93CF93DF9383E290E090
:100160000E94E6078C31A9F060E083E290E0DF9125
:10017000CF911F910F91FF90EF90DF90CF90BF90A4
:10018000AF909F908F907F906F905F904F900C9466
:10019000FE0785E290E00E94E607482E882321F3BF
:1001A00086E2A82E80E0B82E99E2692E90E0792EA2
:1001B000512CCFE2D0E0C5010E94E607C82EC30152
:1001C0000E94EE074C01CC20D1F0CA94D12C8FEFC5
:1001D000C81AD80ACC0EDD1E7E018FEFE81AF80A85
:1001E000CE010E94E60784010F5F1F4F682FC401F4
:1001F0000E94FE07E7014801CE14DF0469F753941B
:100200008FEFA81AB80A82E0680E711C4510D3CF90
:10021000ABCF8F929F92BF92CF92DF92EF92FF92DD
:100220000F931F93CF93DF93CDB7DEB78E01025F9D
:100230001F4FF801E190F1908F0160E083E290E0C0
:100240000E94FE07E114F10409F442C03FE2832E4C
:1002500030E0932EB12CA701B401F8018081918187
:100260000E94F4078E0C9F1CCB2CD12CF8016281CC
:100270007381F3E0CF0ED11CC601880F991F8D5DED
:100280009F4F0E940C086E2DC6018D5D9F4F0E94EE
:10029000FE07B394F801E480F5800A5F1F4FE11474
:1002A000F104C9F66B2D85E290E00E94FE076CE137
:1002B00083E290E00E94FE07DF91CF911F910F91A2
:1002C000FF90EF90DF90CF90BF909F908F90089518
:1002D000B12CE8CF2F923F924F925F926F927F9214
:1002E0008F929F92AF92BF92CF92DF92EF92FF9246
:1002F0000F931F93CF93DF93CDB7DEB7A0970FB6C1
:10030000F894DEBF0FBECDBF809104018132F8F0BA
:100310008CE68093050180E280930601A0960FB6DB
:10032000F894DEBF0FBECDBFDF91CF911F910F912B
:10033000FF90EF90DF90CF90BF90AF909F908F9005
:100340007F906F905F904F903F902F900895809195
:1003500000010E94170480910401882309F480C0E1
:100360009E012F5F3F4F6901790100E010E00E947C
:10037000ED04F70181937F010F5F1F4F809104010E
:1003800090E0081719079CF31F921F9222E030E0BB
:100390003F932F93DF92CF929F938F9382E290E0CF
:1003A0009F938F9384E091E09F938F931F9281E0BE
:1003B0008F930E94090183E290E00E94E6070FB646
:1003C000F894DEBF0FBECDBF8C3149F060E083E210
:1003D00090E00E94FE0780E9809305019FCF85E2AF
:1003E00090E00E94E607282E882381F386E2682E9B
:1003F00080E0782E99E2492E90E0592E0FE210E02D
:10040000312CC3010E94E607882EC2010E94EE072C
:100410007C018820D9F08A94912CFFEF8F1A9F0AD3
:10042000800E911E58012FEFA21AB20AC8010E9435
:10043000E60767013FEFC31AD30A682FC7010E947E
:10044000FE0785017601A814B90461F733948FEF94
:10045000681A780A92E0490E511C2310D2CFB6CF09
:1004600080E090E09E012F5F3F4F69018DCFCF93D9
:10047000DF9382E290E00E94E607909104018917E1
:1004800041F09CE69093050180930601DF91CF91A6
:100490000895809100010E9417048091040188232F
:1004A00081F0C0E0D0E0CE018E5F9F4F0E94E60752
:1004B0000E94170421968091040190E0C817D90783
:1004C00094F380E980930501DF91CF910895CF9354
:1004D00080910401823041F08CE68093050182E036
:1004E00080930601CF910895809100010E94170426
:1004F00080E090E00E94EE07C92F0E9417048C2F25
:100500000E94170480E980930501CF9108952F92EE
:100510003F924F925F926F927F928F929F92AF9293
:10052000BF92CF92DF92EF92FF920F931F93CF93E0
:10053000DF9300D0CDB7DEB7109104011230D9F0AF
:100540008CE68093050182E0809306010F900F9066
:10055000DF91CF911F910F91FF90EF90DF90CF909F
:10056000BF90AF909F908F907F906F905F904F90D3
:100570003F902F900895809100010E9417040E94DF
:10058000ED04C82ED12C0E94ED04E82EF12CFE2C97
:10059000EE24EC0CFD1C80E090E00E94EE078E0D36
:1005A0009F1D9A8389838E159F0520F481E6809391
:1005B0000501CCCF1F921F9280E090E09F938F9314
:1005C000CE0101969F938F931F921F930E94090162
:1005D00083E290E00E94E6070FB6F894DEBF0FBEFC
:1005E000CDBF8C3149F060E083E290E00E94FE07CD
:1005F00080E980930501AACF85E290E00E94E6079A
:10060000282E882381F386E2682E80E0782E99E2F6
:10061000492E90E0592E0FE210E0312CC3010E94C8
:10062000E607882EC2010E94EE077C018820D9F0DF
:100630008A94912C3FEF831A930A800E911E5801E1
:100640008FEFA81AB80AC8010E94E60767019FEF5A
:10065000C91AD90A682FC7010E94FE0785017601D1
:100660008A149B0461F733942FEF621A720A32E006
:10067000430E511C2310D2CFB6CF2F923F924F92F0
:100680005F926F927F928F929F92AF92BF92CF9222
:10069000DF92EF92FF920F931F93CF93DF9300D0DF
:1006A000CDB7DEB7109104011230D9F08CE68093FB
:1006B000050182E0809306010F900F90DF91CF91AA
:1006C0001F910F91FF90EF90DF90CF90BF90AF9070
:1006D0009F908F907F906F905F904F903F902F9062
:1006E0000895809100010E9417040E94ED04C82E15
:1006F000D12C0E94ED04E82EF12CFE2CEE24EC0C03
:10070000FD1C80E090E00E94EE078E159F0520F40E
:1007100081E680930501D0CF8E199F099A83898342
:100720001F921F9280E090E09F938F93CE010196DD
:100730009F938F931F921F930E94090183E290E081
:100740000E94E6070FB6F894DEBF0FBECDBF8C3116
:1007500049F060E083E290E00E94FE0780E9809328
:100760000501AACF85E290E00E94E607282E8823A3
:1007700081F386E2682E80E0782E99E2492E90E09F
:10078000592E0FE210E0312CC3010E94E607882E9B
:10079000C2010E94EE077C018820D9F08A94912C36
:1007A0003FEF831A930A800E911E58018FEFA81A0B
:1007B000B80AC8010E94E60767019FEFC91AD90A63
:1007C000682FC7010E94FE0785017601A814B904AD
:1007D00061F733942FEF621A720A32E0430E511C14
:1007E0002310D2CFB6CFCF93DF9300D0CDB7DEB7F3
:1007F0008A838A8181708295807F898382EB90E0F1
:10080000FC0180818E32D0F385E290E02981FC01E9
:10081000208382EB90E0FC01108282EB90E0FC01EF
:10082000108200000F900F90DF91CF910895CF9329
:10083000DF9300D000D0CDB7DEB78C838C818B8363
:1008400081EB90E022E0FC01208382EB90E028E243
:10085000FC01208385E290E025E230E0F90120816F
:100860002061FC01208384E290E024E230E0F90181
:1008700020812061FC01208380E00E94F3031A8222
:1008800019820DC08C810E94F3039A818C81892783
:100890008A838C8186958C8389818F5F8983898106
:1008A000883080F38A810E94F30381E00E94F30381
:1008B00082EB90E0FC0180818E32D0F384E290E004
:1008C00024E230E0F90120812F7EFC01208385E2C3
:1008D00090E025E230E0F90120812F7EFC012083A9
:1008E00082EB90E0FC0180818D35D0F383E290E0D3
:1008F000FC018081882F90E080719927892B91F4E9
:1009000083E290E0FC018081882F90E0807199273C
:10091000892BB1F382EB90E026E1FC0120838B81EF
:100920008C8398CF81EB90E0FC01108200000F9047
:100930000F900F900F90DF91CF910895CF93DF9399
:100940001F92CDB7DEB782EB90E0FC0180818E3242
:10095000D0F382EB90E0FC01108282EB90E0FC018E
:10096000108282EB90E0FC0180818C30D0F383E236
:1009700090E0FC0180818071898382EB90E0FC0132
:1009800080818731D0F383E290E0FC018081882F61
:1009900090E080719927982F8981890F898382EB54
:1009A00090E0FC0180818232D0F383E290E0FC0190
:1009B0008081882F90E080719927982F8981890FF5
:1009C00089838981882F90E0880F991F880F991F4C
:1009D00080780F90DF91CF910895CF93DF9300D06F
:1009E00000D0CDB7DEB781EB90E022E0FC012083A0
:1009F00084E290E024E230E0F90120812F7EFC01C6
:100A0000208385E290E025E230E0F9012081206139
:100A1000FC0120831A8283E290E0FC018081882F10
:100A200090E080719927892BB1F783E290E0FC0177
:100A30008081882F90E080719927892BB1F782EB14
:100A400090E0FC01108282EB90E0FC0110821B829E
:100A5000198210C00E949E048C838A81982F9695DB
:100A60008C81890F8A839B818C8189278B838981E3
:100A70008F5F89838981883068F30E949E04982F54
:100A80008B8189278B8382EB90E0FC0180818D35FF
:100A9000D0F38B818823C9F085E290E025E230E035
:100AA000F90120812F7EFC01208384E290E024E282
:100AB00030E0F90120812061FC01208382EB90E08D
:100AC000FC018081823AD0F393CF82EB90E0FC016D
:100AD00080818B38D0F381EB90E0FC0110828A8119
:100AE0000F900F900F900F90DF91CF910895CF93BB
:100AF000DF93CDB7DEB7A2970FB6F894DEBF0FBE77
:100B0000CDBF80E880BF87E8809364008FEF85B910
:100B100084B988B987B91AB88BB980E68093B600D2
:100B20000E944D000E949E0010920601EEE63E2EAD
:100B3000FCE62F2E1DC080910001823009F445C0D3
:100B4000B0F1843009F472C008F45BC0853009F05C
:100B500053C0123009F4F3C02092050182E0809363
:100B600006018CE60E941704809106010E9417047A
:100B70000E94ED04809302010E94ED048093000125
:100B80000E94ED04809303010E94ED048093010113
:100B90000E94ED04182F80930401109206018091A9
:100BA0000201813841F2309205018EE6DBCF8823C5
:100BB000C9F0813009F5113208F45BC020920501BB
:100BC00030E2309306018CE6CDCF82E290E00E94C5
:100BD000E607181709F499C02092050180930601D1
:100BE0008CE6C0CF143009F4C8C02092050184E01F
:100BF000809306018CE6B6CF2DE6209305018DE6A5
:100C0000B1CF123009F0A8CF83E00E94170480E032
:100C100090E00E94EE07192F0E941704812F0E9476
:100C2000170420E92093050180E99CCF123009F0D8
:100C300093CF84E00E9417040E94ED04C82ED12CAB
:100C40000E94ED0490E0982F88277C01EC0CFD1C9D
:100C500080E090E00E94EE078E0D9F1D9A838983AD
:100C60008E159F0508F0E7C031E63093050181E657
:100C700079CF81E00E94170480910401882309F450
:100C8000A2C18E010F5F1F4FE12CF12C0E94ED04D9
:100C9000F80181938F01FFEFEF1AFF0A80910401A1
:100CA00090E0E816F90694F31F921F9222E030E0DC
:100CB0003F932F93E1E0F0E0EC0FFD1FFF93EF93E4
:100CC0009F938F9382E290E09F938F9324E031E093
:100CD0003F932F931F9281E08F930E94090183E23B
:100CE00090E00E94E6070FB6F894DEBF0FBECDBFBE
:100CF0008C3109F45BC060E083E290E00E94FE0763
:100D0000F0E9F093050180E92DCF82E00E941704FD
:100D100080910401882309F484CF00E010E0C80129
:100D20008E5F9F4F0E94E6070E9417040F5F1F4FC0
:100D30008091040190E0081719078CF372CF85E0C9
:100D40000E9417040E94ED04C82ED12C0E94ED04CD
:100D500090E0982F88277C01EC0CFD1C80E090E04F
:100D60000E94EE079A8389838E159F0508F0C5C0FF
:100D700021E62093050181E6F5CE80E00E9417046C
:100D800080910401882309F44CCF00E010E0F801C1
:100D9000E859FF4F84910E9417040F5F1F4F809105
:100DA000040190E00817190794F33BCF85E290E027
:100DB0000E94E6078AA3882309F49DCF66E2662E87
:100DC00060E0762E79E2472E70E0572E0FE210E0B9
:100DD00019A2C3010E94E607882EC2010E94EE07F5
:100DE0007C018820D9F08A94912C2FEF821A920AE4
:100DF000800E911E58013FEFA31AB30AC8010E944A
:100E0000E60767014FEFC41AD40A682FC7010E9492
:100E1000FE0785017601A814B90461F789A18F5FE7
:100E200089A39FEF691A790AE2E04E0E511CFAA1DC
:100E3000F813CFCF60CF1F921F9280E090E09F9376
:100E40008F9381E090E08C0F9D1F9F938F931F9253
:100E50001F930E94090183E290E00E94E6070FB60B
:100E6000F894DEBF0FBECDBF8C3109F044CF85E2D0
:100E700090E00E94E6078AA3882309F43CCF36E27B
:100E8000632E30E0732E49E2442E40E0542E0FE2F0
:100E900010E019A2C3010E94E607D82EC2010E94E9
:100EA000EE077C01DD20E1F0DA948D2C912C2FEF00
:100EB000821A920A800E911E58013FEFA31AB30ABC
:100EC000C8010E94E60767014FEFC41AD40A682FD1
:100ED000C7010E94FE07850176018A149B0461F711
:100EE00089A18F5F89A39FEF691A790AE2E04E0E0C
:100EF000511CFAA1F813CECFFECE8E199F099A830A
:100F000089831F921F9280E090E09F938F9381E0EE
:100F100090E08C0F9D1F9F938F931F921F930E94B1
:100F2000090183E290E00E94E6070FB6F894DEBF65
:100F30000FBECDBF8C3109F0DECE85E290E00E947D
:100F4000E6078AA3882309F4D6CE86E2682E80E0DD
:100F5000782E99E2492E90E0592E0FE210E019A266
:100F6000C3010E94E607D82EC2010E94EE077C0151
:100F7000DD20E1F0DA948D2C912C2FEF821A920A69
:100F8000800E911E58013FEFA31AB30AC8010E94B8
:100F9000E60767014FEFC41AD40A682FC7010E9401
:100FA000FE0785017601A814B90461F789A18F5F56
:100FB00089A39FEF691A790AE2E04E0E511CFAA14B
:100FC000F813CECF98CE80E090E06ECEF999FECFA8
:100FD00092BD81BDF89A992780B50895A8E1B0E047
:100FE00042E050E00C941308DC01CB0103C02D91CA
:100FF0000E94FF0741505040D0F70895262FF999DD
:10100000FECF1FBA92BD81BD20BD0FB6F894FA9AEB
:10101000F99A0FBE019608950E94FE07272F0C949F
:10102000FF07DC01CB01FC01F999FECF06C0F2BD40
:10103000E1BDF89A319600B40D9241505040B8F796
:061040000895F894FFCFB3
:00000001FF
