:100000000C9439000C944B000C944B000C944B0056
:100010000C944B000C944B000C944B000C944B0034
:100020000C944B000C944B000C944B000C944B0024
:100030000C944B000C944B000C944B000C944B0014
:100040000C944B000C944B000C944B000C944B0004
:100050000C944B000C944B000C944B000C944B00F4
:100060000C944B000C944B00312E3030626F757243
:10007000736511241FBECFEFD8E0DEBFCDBF21E0F6
:10008000A0E0B1E001C01D92A730B207E1F70E94E5
:1000900072050C9420080C940000CF93DF938BE33F
:1000A0000E94120487EF0E94120481E00E94120451
:1000B00085E00E94120485E00E94120480E00E9404
:1000C000120480E00E941204CCE6D0E0FE0184918C
:1000D0000E9412042196F0E0C237DF07B9F7DF91E2
:1000E000CF910895CF93DF9380910401843049F03C
:1000F0008CE68093050184E080930601DF91CF9127
:100100000895809100010E941204809104018823C7
:1001100079F0C0E0D0E0FE01E859FF4F84910E94E1
:10012000120421968091040190E0C817D9079CF32E
:1001300080E980930501DF91CF9108954F925F92FE
:100140006F927F928F929F92AF92BF92CF92DF92E7
:10015000EF92FF920F931F93CF93DF9383E290E090
:100160000E94E5078C31A9F060E083E290E0DF9126
:10017000CF911F910F91FF90EF90DF90CF90BF90A4
:10018000AF909F908F907F906F905F904F900C9466
:10019000FD0785E290E00E94E507482E882321F3C1
:1001A00086E2A82E80E0B82E99E2692E90E0792EA2
:1001B000512CCFE2D0E0C5010E94E507C82EC30153
:1001C0000E94ED074C01CC20D1F0CA94D12C8FEFC6
:1001D000C81AD80ACC0EDD1E7E018FEFE81AF80A85
:1001E000CE010E94E50784010F5F1F4F682FC401F5
:1001F0000E94FD07E7014801CE14DF0469F753941C
:100200008FEFA81AB80A82E0680E711C4510D3CF90
:10021000ABCF8F929F92BF92CF92DF92EF92FF92DD
:100220000F931F93CF93DF93CDB7DEB78E01025F9D
:100230001F4FF801E190F1908F0160E083E290E0C0
:100240000E94FD07E114F10409F442C03FE2832E4D
:1002500030E0932EB12CA701B401F8018081918187
:100260000E94F3078E0C9F1CCB2CD12CF8016281CD
:100270007381F3E0CF0ED11CC601880F991F8D5DED
:100280009F4F0E940B086E2DC6018D5D9F4F0E94EF
:10029000FD07B394F801E480F5800A5F1F4FE11475
:1002A000F104C9F66B2D85E290E00E94FD076CE138
:1002B00083E290E00E94FD07DF91CF911F910F91A3
:1002C000FF90EF90DF90CF90BF909F908F90089518
:1002D000B12CE8CF2F923F924F925F926F927F9214
:1002E0008F929F92AF92BF92CF92DF92EF92FF9246
:1002F0000F931F93CF93DF93CDB7DEB7A0970FB6C1
:10030000F894DEBF0FBECDBF809104018132F8F0BA
:100310008CE68093050180E280930601A0960FB6DB
:10032000F894DEBF0FBECDBFDF91CF911F910F912B
:10033000FF90EF90DF90CF90BF90AF909F908F9005
:100340007F906F905F904F903F902F900895809195
:1003500000010E94120480910401882309F480C0E6
:100360009E012F5F3F4F6901790100E010E00E947C
:10037000E804F70181937F010F5F1F4F8091040113
:1003800090E0081719079CF31F921F9222E030E0BB
:100390003F932F93DF92CF929F938F9382E290E0CF
:1003A0009F938F9384E091E09F938F931F9281E0BE
:1003B0008F930E94090183E290E00E94E5070FB647
:1003C000F894DEBF0FBECDBF8C3149F060E083E210
:1003D00090E00E94FD0780E9809305019FCF85E2B0
:1003E00090E00E94E507282E882381F386E2682E9C
:1003F00080E0782E99E2492E90E0592E0FE210E02D
:10040000312CC3010E94E507882EC2010E94ED072E
:100410007C018820D9F08A94912CFFEF8F1A9F0AD3
:10042000800E911E58012FEFA21AB20AC8010E9435
:10043000E50767013FEFC31AD30A682FC7010E947F
:10044000FD0785017601A814B90461F733948FEF95
:10045000681A780A92E0490E511C2310D2CFB6CF09
:1004600080E090E09E012F5F3F4F69018DCFCF93D9
:10047000DF9382E290E00E94E507909104018917E2
:1004800041F09CE69093050180930601DF91CF91A6
:100490000895809100010E94120480910401882334
:1004A00081F0C0E0D0E0CE018E5F9F4F0E94E50753
:1004B0000E94120421968091040190E0C817D90788
:1004C00094F380E980930501DF91CF910895CF9354
:1004D00080910401823041F08CE68093050182E036
:1004E00080930601CF910895809100010E9412042B
:1004F00080E090E00E94ED07C82F892F0E9412042F
:100500008C2F0E94120480E980930501CF910895F9
:100510002F923F924F925F926F927F928F929F9213
:10052000AF92BF92CF92DF92EF92FF920F931F9301
:10053000CF93DF9300D0CDB7DEB710910401123016
:10054000D9F08CE68093050182E0809306010F903C
:100550000F90DF91CF911F910F91FF90EF90DF905F
:10056000CF90BF90AF909F908F907F906F905F9053
:100570004F903F902F900895809100010E941204A7
:100580000E94E804E82EF12CFE2CEE240E94E804E0
:10059000E82A80E090E00E94ED078E0D9F1D9A836F
:1005A00089838E159F0520F481E680930501CFCFC6
:1005B0001F921F9280E090E09F938F93CE0101964F
:1005C0009F938F931F921F930E94090183E290E0F3
:1005D0000E94E5070FB6F894DEBF0FBECDBF8C3189
:1005E00049F060E083E290E00E94FD0780E980939B
:1005F0000501ADCF85E290E00E94E507282E882313
:1006000081F386E2682E80E0782E99E2492E90E010
:10061000592E0FE210E0312CC3010E94E507882E0D
:10062000C2010E94ED077C018820D9F08A94912CA8
:100630003FEF831A930A800E911E58018FEFA81A7C
:10064000B80AC8010E94E50767019FEFC91AD90AD5
:10065000682FC7010E94FD07850176018A149B045B
:1006600061F733942FEF621A720A32E0430E511C85
:100670002310D2CFB6CF2F923F924F925F926F92BC
:100680007F928F929F92AF92BF92CF92DF92EF9222
:10069000FF920F931F93CF93DF9300D0CDB7DEB7B8
:1006A000109104011230D9F08CE68093050182E0AC
:1006B000809306010F900F90DF91CF911F910F91C2
:1006C000FF90EF90DF90CF90BF90AF909F908F9072
:1006D0007F906F905F904F903F902F900895809102
:1006E00000010E9412040E94E804E82EF12CFE2C66
:1006F000EE240E94E804E82A80E090E00E94ED07E2
:100700008E159F0520F481E680930501D3CF8E19C5
:100710009F099A8389831F921F9280E090E09F93A4
:100720008F93CE0101969F938F931F921F930E94E8
:10073000090183E290E00E94E5070FB6F894DEBF5E
:100740000FBECDBF8C3149F060E083E290E00E94A3
:10075000FD0780E980930501ADCF85E290E00E941E
:10076000E507282E882381F386E2682E80E0782E24
:1007700099E2492E90E0592E0FE210E0312CC3018E
:100780000E94E507882EC2010E94ED077C018820A7
:10079000D9F08A94912C3FEF831A930A800E911E10
:1007A00058018FEFA81AB80AC8010E94E50767012F
:1007B0009FEFC91AD90A682FC7010E94FD0785015A
:1007C0007601A814B90461F733942FEF621A720A04
:1007D00032E0430E511C2310D2CFB6CFCF93DF931C
:1007E00000D0CDB7DEB78A838A8181708295807F01
:1007F000898382EB90E0FC0180818E32D0F385E228
:1008000090E02981FC01208382EB90E0FC011082C2
:1008100082EB90E0FC01108200000F900F90DF91BE
:10082000CF910895CF93DF9300D000D0CDB7DEB73E
:100830008C838C818B8381EB90E022E0FC01208310
:1008400082EB90E028E2FC01208385E290E025E243
:1008500030E0F90120812061FC01208384E290E0F6
:1008600024E230E0F90120812061FC01208380E056
:100870000E94EE031A8219820DC08C810E94EE0341
:100880009A818C8189278A838C8186958C83898142
:100890008F5F89838981883080F38A810E94EE038B
:1008A00081E00E94EE0382EB90E0FC0180818E32B9
:1008B000D0F384E290E024E230E0F90120812F7E41
:1008C000FC01208385E290E025E230E0F9012081FF
:1008D0002F7EFC01208382EB90E0FC0180818D352E
:1008E000D0F383E290E0FC018081882F90E080715A
:1008F0009927892B91F483E290E0FC018081882F75
:1009000090E080719927892BB1F382EB90E026E18A
:10091000FC0120838B818C8398CF81EB90E0FC01DC
:10092000108200000F900F900F900F90DF91CF91E9
:100930000895CF93DF931F92CDB7DEB782EB90E09F
:10094000FC0180818E32D0F382EB90E0FC011082BA
:1009500082EB90E0FC01108282EB90E0FC01808150
:100960008C30D0F383E290E0FC0180818071898338
:1009700082EB90E0FC0180818731D0F383E290E04C
:10098000FC018081882F90E080719927982F8981C0
:10099000890F898382EB90E0FC0180818232D0F361
:1009A00083E290E0FC018081882F90E0807199279C
:1009B000982F8981890F89838981882F90E0880FFA
:1009C000991F880F991F80780F90DF91CF9108951C
:1009D000CF93DF9300D000D0CDB7DEB781EB90E0AE
:1009E00022E0FC01208384E290E024E230E0F9017F
:1009F00020812F7EFC01208385E290E025E230E01B
:100A0000F90120812061FC0120831A8283E290E0B9
:100A1000FC018081882F90E080719927892BB1F7A4
:100A200083E290E0FC018081882F90E0807199271B
:100A3000892BB1F782EB90E0FC01108282EB90E011
:100A4000FC0110821B82198210C00E9499048C83C1
:100A50008A81982F96958C81890F8A839B818C81BE
:100A600089278B8389818F5F89838981883068F3A7
:100A70000E949904982F8B8189278B8382EB90E0C9
:100A8000FC0180818D35D0F38B818823C9F085E20C
:100A900090E025E230E0F90120812F7EFC012083E7
:100AA00084E290E024E230E0F90120812061FC0141
:100AB000208382EB90E0FC018081823AD0F393CFD7
:100AC00082EB90E0FC0180818B38D0F381EB90E0E9
:100AD000FC0110828A810F900F900F900F90DF9190
:100AE000CF910895CF93DF93CDB7DEB7A2970FB61E
:100AF000F894DEBF0FBECDBF80E880BF87E880934B
:100B000064008FEF85B984B988B987B91AB88BB9F1
:100B100080E68093B6000E944D000E949E00ECE6A5
:100B20003E2EFEE62F2E15C080910001823009F482
:100B300084C0833009F465C0813009F43FC02DE6DC
:100B4000209305018DE60E941204809106010E9407
:100B500012040E94E804809302010E94E80480933A
:100B600000010E94E804809303010E94E80480933E
:100B700001010E94E804182F8093040110920601DD
:100B800080910201813831F0823871F220920501A2
:100B90008EE6D9CF80910001813049F1F0F08230AA
:100BA000B9F482E290E00E94E507181709F4B0C09A
:100BB00030920501809306018CE6C5CF123009F40E
:100BC000D8C03092050182E0809306018CE6BBCF4D
:100BD0004DE6409305018DE6B6CF143009F4B1C05F
:100BE0003092050124E0209306018CE6ACCF11324F
:100BF00008F442C03092050140E2409306018CE6C1
:100C0000A2CF1230F1F683E00E9412040E94E804A1
:100C100090E0F82EEE240E94E804E82A80E090E0BC
:100C20000E94ED079A8389838E159F0508F0F8C00E
:100C300041E64093050181E686CF123009F0B8CF36
:100C400082E00E9412040E94E80490E0F82EEE2454
:100C50000E94E804E82A80E090E00E94ED078E0DF3
:100C60009F1D9A8389838E159F0508F003C191E625
:100C70009093050181E667CF81E00E941204809184
:100C80000401882309F49EC18E010F5F1F4FE12CE0
:100C9000F12C0E94E804F80181938F01FFEFEF1A15
:100CA000FF0A8091040190E0E816F90694F31F9280
:100CB0001F9222E030E03F932F93E1E0F0E0EC0F51
:100CC000FD1FFF93EF939F938F9322E230E03F93BA
:100CD0002F9384E091E09F938F931F9281E08F93F5
:100CE0000E94090183E290E00E94E5070FB6F894A4
:100CF000DEBF0FBECDBF8C3109F44DC060E083E292
:100D000090E00E94FD0730E93093050180E91BCF98
:100D100082E00E941204809104018823A1F300E084
:100D200010E0C8018E5F9F4F0E94E5070E941204E9
:100D30000F5F1F4F8091040190E0081719078CF393
:100D4000E2CF80E00E941204809104018823D9F24E
:100D500000E010E0F801E859FF4F84910E9412046E
:100D60000F5F1F4F8091040190E00817190794F35B
:100D7000CACF81E00E94120480E090E00E94ED075B
:100D8000182F892F0E941204812F0E94120480E9DB
:100D900080930501D8CE85E290E00E94E5078AA302
:100DA000882309F4ABCF66E2662E60E0762E79E206
:100DB000472E70E0572E0FE210E019A2C3010E94E7
:100DC000E507882EC2010E94ED077C018820D9F03A
:100DD0008A94912C4FEF841A940A800E911E580128
:100DE0008FEFA81AB80AC8010E94E50767019FEFB4
:100DF000C91AD90A682FC7010E94FD07850176012B
:100E0000A814B90461F7E9A1EF5FE9A3FFEF6F1A36
:100E10007F0A22E0420E511C3AA13E13CFCF6ECF83
:100E20008E199F099A8389831F921F9280E090E018
:100E30009F938F9381E090E08C0F9D1F9F938F93E2
:100E40001F921F930E94090183E290E00E94E50730
:100E50000FB6F894DEBF0FBECDBF8C3109F46CC065
:100E600060E083E290E00E94FD07F0E9F093050165
:100E700080E969CE1F921F9280E090E09F938F934C
:100E8000E1E0F0E0EC0FFD1FFF93EF931F921F9343
:100E90000E94090183E290E00E94E5070FB6F894F2
:100EA000DEBF0FBECDBF8C3109F028CF85E290E0C8
:100EB0000E94E5078AA3882309F420CF36E2632E37
:100EC00030E0732E49E2442E40E0542E0FE210E051
:100ED00019A2C3010E94E507D82EC2010E94ED07A6
:100EE0007C01DD20E1F0DA948D2C912C4FEF841AF7
:100EF000940A800E911E58018FEFA81AB80AC801F3
:100F00000E94E50767019FEFC91AD90A682FC70138
:100F10000E94FD07850176018A149B0461F7E9A10F
:100F2000EF5FE9A3FFEF6F1A7F0A22E0420E511C28
:100F30003AA13E13CECFE2CE85E290E00E94E507D3
:100F40008AA3882309F48CCF86E2682E80E0782E6D
:100F500099E2492E90E0592E0FE210E019A2C30148
:100F60000E94E507D82EC2010E94ED077C01DD201A
:100F7000E1F0DA948D2C912C2FEF821A920A800ED8
:100F8000911E58013FEFA31AB30AC8010E94E5075A
:100F900067014FEFC41AD40A682FC7010E94FD07EA
:100FA00085017601A814B90461F789A18F5F89A32F
:100FB0009FEF691A790AE2E04E0E511CFAA1F8136C
:100FC000CECF4ECF80E090E072CEF999FECF92BDA9
:100FD00081BDF89A992780B50895A8E1B0E042E074
:100FE00050E00C941208DC01CB0103C02D910E944B
:100FF000FE0741505040D0F70895262FF999FECFB3
:101000001FBA92BD81BD20BD0FB6F894FA9AF99A25
:101010000FBE019608950E94FD07272F0C94FE072E
:10102000DC01CB01FC01F999FECF06C0F2BDE1BDA8
:10103000F89A319600B40D9241505040B8F7089597
:04104000F894FFCF52
:00000001FF
